{
  "_format": "hh-sol-artifact-1",
  "contractName": "WavePortal",
  "sourceName": "contracts/WavePortal.sol",
  "abi": [
    {
      "inputs": [],
      "stateMutability": "payable",
      "type": "constructor"
    },
    {
      "anonymous": false,
      "inputs": [
        {
          "indexed": true,
          "internalType": "address",
          "name": "from",
          "type": "address"
        },
        {
          "indexed": false,
          "internalType": "uint256",
          "name": "timestamp",
          "type": "uint256"
        },
        {
          "indexed": false,
          "internalType": "string",
          "name": "message",
          "type": "string"
        }
      ],
      "name": "NewWave",
      "type": "event"
    },
    {
      "inputs": [],
      "name": "getAllWaves",
      "outputs": [
        {
          "components": [
            {
              "internalType": "address",
              "name": "waver",
              "type": "address"
            },
            {
              "internalType": "string",
              "name": "message",
              "type": "string"
            },
            {
              "internalType": "uint256",
              "name": "timestamp",
              "type": "uint256"
            }
          ],
          "internalType": "struct WavePortal.Wave[]",
          "name": "",
          "type": "tuple[]"
        }
      ],
      "stateMutability": "view",
      "type": "function"
    },
    {
      "inputs": [],
      "name": "getTotalWaves",
      "outputs": [
        {
          "internalType": "uint256",
          "name": "",
          "type": "uint256"
        }
      ],
      "stateMutability": "view",
      "type": "function"
    },
    {
      "inputs": [
        {
          "internalType": "string",
          "name": "_message",
          "type": "string"
        }
      ],
      "name": "wave",
      "outputs": [],
      "stateMutability": "nonpayable",
      "type": "function"
    }
  ],
  "bytecode": "0x608060405262000033604051806060016040528060228152602001620010d1602291396200003960201b620004fc1760201c565b620001cd565b620000d98160405160240162000050919062000146565b6040516020818303038152906040527f41304fac000000000000000000000000000000000000000000000000000000007bffffffffffffffffffffffffffffffffffffffffffffffffffffffff19166020820180517bffffffffffffffffffffffffffffffffffffffffffffffffffffffff8381831617835250505050620000dc60201b60201c565b50565b60008151905060006a636f6e736f6c652e6c6f679050602083016000808483855afa5050505050565b600062000112826200016a565b6200011e818562000175565b93506200013081856020860162000186565b6200013b81620001bc565b840191505092915050565b6000602082019050818103600083015262000162818462000105565b905092915050565b600081519050919050565b600082825260208201905092915050565b60005b83811015620001a657808201518184015260208101905062000189565b83811115620001b6576000848401525b50505050565b6000601f19601f8301169050919050565b610ef480620001dd6000396000f3fe608060405234801561001057600080fd5b50600436106100415760003560e01c8063449d46c0146100465780639a2cdc0814610062578063bd43a90814610080575b600080fd5b610060600480360381019061005b9190610804565b61009e565b005b61006a610360565b6040516100779190610b43565b60405180910390f35b6100886103ab565b6040516100959190610a4a565b60405180910390f35b6000808154809291906100b090610d36565b91905055506100f56040518060400160405280600d81526020017f25732068617320776176656421000000000000000000000000000000000000008152503383610595565b600160405180606001604052803373ffffffffffffffffffffffffffffffffffffffff16815260200183815260200142815250908060018154018082558091505060019003906000526020600020906003020160009091909190915060008201518160000160006101000a81548173ffffffffffffffffffffffffffffffffffffffff021916908373ffffffffffffffffffffffffffffffffffffffff16021790555060208201518160010190805190602001906101b49291906106f9565b506040820151816002015550503373ffffffffffffffffffffffffffffffffffffffff167f5f7e16dc676677766a70e9c5628aa6c54ddb8b6e5188e2ae1e1f17f1ffbea7164283604051610209929190610b5e565b60405180910390a23373ffffffffffffffffffffffffffffffffffffffff167f5f7e16dc676677766a70e9c5628aa6c54ddb8b6e5188e2ae1e1f17f1ffbea7164283604051610259929190610b5e565b60405180910390a26000655af3107a40009050478111156102af576040517f08c379a00000000000000000000000000000000000000000000000000000000081526004016102a690610b03565b60405180910390fd5b60003373ffffffffffffffffffffffffffffffffffffffff16826040516102d590610a35565b60006040518083038185875af1925050503d8060008114610312576040519150601f19603f3d011682016040523d82523d6000602084013e610317565b606091505b505090508061035b576040517f08c379a000000000000000000000000000000000000000000000000000000000815260040161035290610b23565b60405180910390fd5b505050565b60006103a36040518060400160405280601781526020017f5765206861766520256420746f74616c20776176657321000000000000000000815250600054610634565b600054905090565b60606001805480602002602001604051908101604052809291908181526020016000905b828210156104f357838290600052602060002090600302016040518060600160405290816000820160009054906101000a900473ffffffffffffffffffffffffffffffffffffffff1673ffffffffffffffffffffffffffffffffffffffff1673ffffffffffffffffffffffffffffffffffffffff16815260200160018201805461045890610cd3565b80601f016020809104026020016040519081016040528092919081815260200182805461048490610cd3565b80156104d15780601f106104a6576101008083540402835291602001916104d1565b820191906000526020600020905b8154815290600101906020018083116104b457829003601f168201915b50505050508152602001600282015481525050815260200190600101906103cf565b50505050905090565b610592816040516024016105109190610a6c565b6040516020818303038152906040527f41304fac000000000000000000000000000000000000000000000000000000007bffffffffffffffffffffffffffffffffffffffffffffffffffffffff19166020820180517bffffffffffffffffffffffffffffffffffffffffffffffffffffffff83818316178352505050506106d0565b50565b61062f8383836040516024016105ad93929190610a8e565b6040516020818303038152906040527fe0e9ad4f000000000000000000000000000000000000000000000000000000007bffffffffffffffffffffffffffffffffffffffffffffffffffffffff19166020820180517bffffffffffffffffffffffffffffffffffffffffffffffffffffffff83818316178352505050506106d0565b505050565b6106cc828260405160240161064a929190610ad3565b6040516020818303038152906040527f9710a9d0000000000000000000000000000000000000000000000000000000007bffffffffffffffffffffffffffffffffffffffffffffffffffffffff19166020820180517bffffffffffffffffffffffffffffffffffffffffffffffffffffffff83818316178352505050506106d0565b5050565b60008151905060006a636f6e736f6c652e6c6f679050602083016000808483855afa5050505050565b82805461070590610cd3565b90600052602060002090601f016020900481019282610727576000855561076e565b82601f1061074057805160ff191683800117855561076e565b8280016001018555821561076e579182015b8281111561076d578251825591602001919060010190610752565b5b50905061077b919061077f565b5090565b5b80821115610798576000816000905550600101610780565b5090565b60006107af6107aa84610bb3565b610b8e565b9050828152602081018484840111156107c757600080fd5b6107d2848285610c91565b509392505050565b600082601f8301126107eb57600080fd5b81356107fb84826020860161079c565b91505092915050565b60006020828403121561081657600080fd5b600082013567ffffffffffffffff81111561083057600080fd5b61083c848285016107da565b91505092915050565b600061085183836109c7565b905092915050565b61086281610c55565b82525050565b61087181610c55565b82525050565b600061088282610bf4565b61088c8185610c17565b93508360208202850161089e85610be4565b8060005b858110156108da57848403895281516108bb8582610845565b94506108c683610c0a565b925060208a019950506001810190506108a2565b50829750879550505050505092915050565b60006108f782610bff565b6109018185610c33565b9350610911818560208601610ca0565b61091a81610e0c565b840191505092915050565b600061093082610bff565b61093a8185610c44565b935061094a818560208601610ca0565b61095381610e0c565b840191505092915050565b600061096b603483610c44565b915061097682610e1d565b604082019050919050565b600061098e602783610c44565b915061099982610e6c565b604082019050919050565b60006109b1600083610c28565b91506109bc82610ebb565b600082019050919050565b60006060830160008301516109df6000860182610859565b50602083015184820360208601526109f782826108ec565b9150506040830151610a0c6040860182610a17565b508091505092915050565b610a2081610c87565b82525050565b610a2f81610c87565b82525050565b6000610a40826109a4565b9150819050919050565b60006020820190508181036000830152610a648184610877565b905092915050565b60006020820190508181036000830152610a868184610925565b905092915050565b60006060820190508181036000830152610aa88186610925565b9050610ab76020830185610868565b8181036040830152610ac98184610925565b9050949350505050565b60006040820190508181036000830152610aed8185610925565b9050610afc6020830184610a26565b9392505050565b60006020820190508181036000830152610b1c8161095e565b9050919050565b60006020820190508181036000830152610b3c81610981565b9050919050565b6000602082019050610b586000830184610a26565b92915050565b6000604082019050610b736000830185610a26565b8181036020830152610b858184610925565b90509392505050565b6000610b98610ba9565b9050610ba48282610d05565b919050565b6000604051905090565b600067ffffffffffffffff821115610bce57610bcd610ddd565b5b610bd782610e0c565b9050602081019050919050565b6000819050602082019050919050565b600081519050919050565b600081519050919050565b6000602082019050919050565b600082825260208201905092915050565b600081905092915050565b600082825260208201905092915050565b600082825260208201905092915050565b6000610c6082610c67565b9050919050565b600073ffffffffffffffffffffffffffffffffffffffff82169050919050565b6000819050919050565b82818337600083830152505050565b60005b83811015610cbe578082015181840152602081019050610ca3565b83811115610ccd576000848401525b50505050565b60006002820490506001821680610ceb57607f821691505b60208210811415610cff57610cfe610dae565b5b50919050565b610d0e82610e0c565b810181811067ffffffffffffffff82111715610d2d57610d2c610ddd565b5b80604052505050565b6000610d4182610c87565b91507fffffffffffffffffffffffffffffffffffffffffffffffffffffffffffffffff821415610d7457610d73610d7f565b5b600182019050919050565b7f4e487b7100000000000000000000000000000000000000000000000000000000600052601160045260246000fd5b7f4e487b7100000000000000000000000000000000000000000000000000000000600052602260045260246000fd5b7f4e487b7100000000000000000000000000000000000000000000000000000000600052604160045260246000fd5b6000601f19601f8301169050919050565b7f547279696e6720746f207769746864726177206d6f7265206d6f6e657920746860008201527f616e2074686520636f6e7472616374206861732e000000000000000000000000602082015250565b7f4661696c656420746f207769746864726177206d6f6e65792066726f6d20636f60008201527f6e74726163742e00000000000000000000000000000000000000000000000000602082015250565b5056fea264697066735822122057a99ba0ce38701b8429db03f32d838114edb1f2603916118787cf653a6e27ea64736f6c6343000804003357656c636f6d6520746f2057617665506f7274616c2c204c65742773207761766521",
  "linkReferences": {},
  "deployedLinkReferences": {}
}